{
  "contractName": "EscrowDemo",
  "abi": [
    {
      "anonymous": false,
      "inputs": [
        {
          "indexed": false,
          "internalType": "string",
          "name": "name",
          "type": "string"
        },
        {
          "indexed": false,
          "internalType": "uint256",
          "name": "age",
          "type": "uint256"
        }
      ],
      "name": "PersonAdded",
      "type": "event"
    },
    {
      "inputs": [
        {
          "internalType": "uint256",
          "name": "",
          "type": "uint256"
        }
      ],
      "name": "people",
      "outputs": [
        {
          "internalType": "string",
          "name": "name",
          "type": "string"
        },
        {
          "internalType": "uint256",
          "name": "age",
          "type": "uint256"
        }
      ],
      "stateMutability": "view",
      "type": "function"
    },
    {
      "inputs": [
        {
          "internalType": "string",
          "name": "_name",
          "type": "string"
        },
        {
          "internalType": "uint256",
          "name": "_age",
          "type": "uint256"
        }
      ],
      "name": "add",
      "outputs": [],
      "stateMutability": "nonpayable",
      "type": "function"
    },
    {
      "inputs": [
        {
          "internalType": "uint256",
          "name": "_index",
          "type": "uint256"
        }
      ],
      "name": "get",
      "outputs": [
        {
          "internalType": "string",
          "name": "",
          "type": "string"
        },
        {
          "internalType": "uint256",
          "name": "",
          "type": "uint256"
        }
      ],
      "stateMutability": "view",
      "type": "function"
    }
  ],
  "bytecode": "0x608060405234801561000f575f80fd5b5061096a8061001d5f395ff3fe608060405234801561000f575f80fd5b506004361061003f575f3560e01c806336555b85146100435780639507d39a1461005f5780639e7a13ad14610090575b5f80fd5b61005d6004803603810190610058919061049a565b6100c1565b005b610079600480360381019061007491906104f4565b61015f565b6040516100879291906105a8565b60405180910390f35b6100aa60048036038101906100a591906104f4565b610266565b6040516100b89291906105a8565b60405180910390f35b5f60405180604001604052808481526020018381525090505f81908060018154018082558091505060019003905f5260205f2090600202015f909190919091505f820151815f01908161011491906107d0565b506020820151816001015550507f038689efcc6afee3cd9a9149881ac988a4baf9420f51737c9d3d832fe2d5b53983836040516101529291906105a8565b60405180910390a1505050565b60605f808054905083106101a8576040517f08c379a000000000000000000000000000000000000000000000000000000000815260040161019f906108e9565b60405180910390fd5b5f8084815481106101bc576101bb610907565b5b905f5260205f2090600202019050805f0181600101548180546101de90610603565b80601f016020809104026020016040519081016040528092919081815260200182805461020a90610603565b80156102555780601f1061022c57610100808354040283529160200191610255565b820191905f5260205f20905b81548152906001019060200180831161023857829003601f168201915b505050505091509250925050915091565b5f8181548110610274575f80fd5b905f5260205f2090600202015f91509050805f01805461029390610603565b80601f01602080910402602001604051908101604052809291908181526020018280546102bf90610603565b801561030a5780601f106102e15761010080835404028352916020019161030a565b820191905f5260205f20905b8154815290600101906020018083116102ed57829003601f168201915b5050505050908060010154905082565b5f604051905090565b5f80fd5b5f80fd5b5f80fd5b5f80fd5b5f601f19601f8301169050919050565b7f4e487b71000000000000000000000000000000000000000000000000000000005f52604160045260245ffd5b61037982610333565b810181811067ffffffffffffffff8211171561039857610397610343565b5b80604052505050565b5f6103aa61031a565b90506103b68282610370565b919050565b5f67ffffffffffffffff8211156103d5576103d4610343565b5b6103de82610333565b9050602081019050919050565b828183375f83830152505050565b5f61040b610406846103bb565b6103a1565b9050828152602081018484840111156104275761042661032f565b5b6104328482856103eb565b509392505050565b5f82601f83011261044e5761044d61032b565b5b813561045e8482602086016103f9565b91505092915050565b5f819050919050565b61047981610467565b8114610483575f80fd5b50565b5f8135905061049481610470565b92915050565b5f80604083850312156104b0576104af610323565b5b5f83013567ffffffffffffffff8111156104cd576104cc610327565b5b6104d98582860161043a565b92505060206104ea85828601610486565b9150509250929050565b5f6020828403121561050957610508610323565b5b5f61051684828501610486565b91505092915050565b5f81519050919050565b5f82825260208201905092915050565b5f5b8381101561055657808201518184015260208101905061053b565b5f8484015250505050565b5f61056b8261051f565b6105758185610529565b9350610585818560208601610539565b61058e81610333565b840191505092915050565b6105a281610467565b82525050565b5f6040820190508181035f8301526105c08185610561565b90506105cf6020830184610599565b9392505050565b7f4e487b71000000000000000000000000000000000000000000000000000000005f52602260045260245ffd5b5f600282049050600182168061061a57607f821691505b60208210810361062d5761062c6105d6565b5b50919050565b5f819050815f5260205f209050919050565b5f6020601f8301049050919050565b5f82821b905092915050565b5f6008830261068f7fffffffffffffffffffffffffffffffffffffffffffffffffffffffffffffffff82610654565b6106998683610654565b95508019841693508086168417925050509392505050565b5f819050919050565b5f6106d46106cf6106ca84610467565b6106b1565b610467565b9050919050565b5f819050919050565b6106ed836106ba565b6107016106f9826106db565b848454610660565b825550505050565b5f90565b610715610709565b6107208184846106e4565b505050565b5b81811015610743576107385f8261070d565b600181019050610726565b5050565b601f8211156107885761075981610633565b61076284610645565b81016020851015610771578190505b61078561077d85610645565b830182610725565b50505b505050565b5f82821c905092915050565b5f6107a85f198460080261078d565b1980831691505092915050565b5f6107c08383610799565b9150826002028217905092915050565b6107d98261051f565b67ffffffffffffffff8111156107f2576107f1610343565b5b6107fc8254610603565b610807828285610747565b5f60209050601f831160018114610838575f8415610826578287015190505b61083085826107b5565b865550610897565b601f19841661084686610633565b5f5b8281101561086d57848901518255600182019150602085019450602081019050610848565b8683101561088a5784890151610886601f891682610799565b8355505b6001600288020188555050505b505050505050565b7f496e646578206f7574206f662072616e676500000000000000000000000000005f82015250565b5f6108d3601283610529565b91506108de8261089f565b602082019050919050565b5f6020820190508181035f830152610900816108c7565b9050919050565b7f4e487b71000000000000000000000000000000000000000000000000000000005f52603260045260245ffdfea26469706673582212205546b92a165efd676f9aca7ae16cea6b89d93c0a922b80e31573c83eaddc6c4764736f6c63430008140033",
  "immutableReferences": {},
  "source": "// SPDX-License-Identifier: MIT \npragma solidity ^0.8.0;\ncontract EscrowDemo {\n    struct Person {\n        string name;\n        uint256 age;\n    }\n\n    Person[] public people;\n\n    event PersonAdded(string name, uint256 age);\n\n    function add(string memory _name, uint256 _age) public {\n        Person memory newPerson = Person(_name, _age);\n        people.push(newPerson);\n\n        emit PersonAdded(_name, _age);\n    }\n\n    function get(uint256 _index) public view returns (string memory, uint256) {\n        require(_index < people.length, \"Index out of range\");\n\n        Person storage person = people[_index];\n        return (person.name, person.age);\n    }\n}",
  "sourcePath": "/Users/sabya.s/Documents/escrow-final-draft/contracts/EscrowDemo.sol",
  "compiler": {
    "name": "solc",
    "version": "0.8.20+commit.a1b79de6.Emscripten.clang"
  },
  "schemaVersion": "3.4.14",
  "updatedAt": "2023-06-26T10:13:11.018Z",
  "devdoc": {
    "kind": "dev",
    "methods": {},
    "version": 1
  },
  "userdoc": {
    "kind": "user",
    "methods": {},
    "version": 1
  }
}