{
  "contractName": "Factory",
  "abi": [
    {
      "anonymous": false,
      "inputs": [
        {
          "indexed": false,
          "internalType": "address",
          "name": "newContract",
          "type": "address"
        },
        {
          "indexed": false,
          "internalType": "uint256",
          "name": "timestamp",
          "type": "uint256"
        }
      ],
      "name": "ContractCreated",
      "type": "event"
    },
    {
      "inputs": [
        {
          "internalType": "uint256",
          "name": "",
          "type": "uint256"
        }
      ],
      "name": "deployedContracts",
      "outputs": [
        {
          "internalType": "contract EscrowDemo",
          "name": "",
          "type": "address"
        }
      ],
      "stateMutability": "view",
      "type": "function"
    },
    {
      "inputs": [],
      "name": "createContract",
      "outputs": [],
      "stateMutability": "nonpayable",
      "type": "function"
    },
    {
      "inputs": [],
      "name": "getDeployedContracts",
      "outputs": [
        {
          "internalType": "contract EscrowDemo[]",
          "name": "",
          "type": "address[]"
        }
      ],
      "stateMutability": "view",
      "type": "function"
    }
  ],
  "bytecode": "0x608060405234801561000f575f80fd5b50610e988061001d5f395ff3fe608060405234801561000f575f80fd5b506004361061003f575f3560e01c8063412a5a6d146100435780639ad1ee101461004d578063aa9a068f1461007d575b5f80fd5b61004b61009b565b005b61006760048036038101906100629190610267565b61015f565b604051610074919061030c565b60405180910390f35b610085610199565b60405161009291906103dc565b60405180910390f35b5f6040516100a890610223565b604051809103905ff0801580156100c1573d5f803e3d5ffd5b5090505f81908060018154018082558091505060019003905f5260205f20015f9091909190916101000a81548173ffffffffffffffffffffffffffffffffffffffff021916908373ffffffffffffffffffffffffffffffffffffffff1602179055507f1dc05c1d6a563dddb6c22082af72b54ec2f0207ceb55db5d13cdabc208f303a9814260405161015492919061042b565b60405180910390a150565b5f818154811061016d575f80fd5b905f5260205f20015f915054906101000a900473ffffffffffffffffffffffffffffffffffffffff1681565b60605f80548060200260200160405190810160405280929190818152602001828054801561021957602002820191905f5260205f20905b815f9054906101000a900473ffffffffffffffffffffffffffffffffffffffff1673ffffffffffffffffffffffffffffffffffffffff16815260200190600101908083116101d0575b5050505050905090565b610a108061045383390190565b5f80fd5b5f819050919050565b61024681610234565b8114610250575f80fd5b50565b5f813590506102618161023d565b92915050565b5f6020828403121561027c5761027b610230565b5b5f61028984828501610253565b91505092915050565b5f73ffffffffffffffffffffffffffffffffffffffff82169050919050565b5f819050919050565b5f6102d46102cf6102ca84610292565b6102b1565b610292565b9050919050565b5f6102e5826102ba565b9050919050565b5f6102f6826102db565b9050919050565b610306816102ec565b82525050565b5f60208201905061031f5f8301846102fd565b92915050565b5f81519050919050565b5f82825260208201905092915050565b5f819050602082019050919050565b610357816102ec565b82525050565b5f610368838361034e565b60208301905092915050565b5f602082019050919050565b5f61038a82610325565b610394818561032f565b935061039f8361033f565b805f5b838110156103cf5781516103b6888261035d565b97506103c183610374565b9250506001810190506103a2565b5085935050505092915050565b5f6020820190508181035f8301526103f48184610380565b905092915050565b5f61040682610292565b9050919050565b610416816103fc565b82525050565b61042581610234565b82525050565b5f60408201905061043e5f83018561040d565b61044b602083018461041c565b939250505056fe608060405234801561000f575f80fd5b506109f38061001d5f395ff3fe608060405234801561000f575f80fd5b506004361061003f575f3560e01c806344e3e6ad146100435780639507d39a1461005f5780639e7a13ad1461008f575b5f80fd5b61005d600480360381019061005891906104a7565b6100c1565b005b61007960048036038101906100749190610513565b610172565b6040516100869190610614565b60405180910390f35b6100a960048036038101906100a49190610513565b61024e565b6040516100b89392919061068b565b60405180910390f35b5f60405180606001604052808581526020018481526020018381525090505f81908060018154018082558091505060019003905f5260205f2090600302015f909190919091505f820151815f0155602082015181600101908161012491906108c1565b506040820151816002015550507f6307a06627b260b48c79b552c1e037e2f907b6729ac610ea54db64b603e5d2d38484846040516101649392919061068b565b60405180910390a150505050565b61017a610308565b5f828154811061018d5761018c610990565b5b905f5260205f2090600302016040518060600160405290815f82015481526020016001820180546101bd906106f4565b80601f01602080910402602001604051908101604052809291908181526020018280546101e9906106f4565b80156102345780601f1061020b57610100808354040283529160200191610234565b820191905f5260205f20905b81548152906001019060200180831161021757829003601f168201915b505050505081526020016002820154815250509050919050565b5f818154811061025c575f80fd5b905f5260205f2090600302015f91509050805f015490806001018054610281906106f4565b80601f01602080910402602001604051908101604052809291908181526020018280546102ad906106f4565b80156102f85780601f106102cf576101008083540402835291602001916102f8565b820191905f5260205f20905b8154815290600101906020018083116102db57829003601f168201915b5050505050908060020154905083565b60405180606001604052805f8152602001606081526020015f81525090565b5f604051905090565b5f80fd5b5f80fd5b5f819050919050565b61034a81610338565b8114610354575f80fd5b50565b5f8135905061036581610341565b92915050565b5f80fd5b5f80fd5b5f601f19601f8301169050919050565b7f4e487b71000000000000000000000000000000000000000000000000000000005f52604160045260245ffd5b6103b982610373565b810181811067ffffffffffffffff821117156103d8576103d7610383565b5b80604052505050565b5f6103ea610327565b90506103f682826103b0565b919050565b5f67ffffffffffffffff82111561041557610414610383565b5b61041e82610373565b9050602081019050919050565b828183375f83830152505050565b5f61044b610446846103fb565b6103e1565b9050828152602081018484840111156104675761046661036f565b5b61047284828561042b565b509392505050565b5f82601f83011261048e5761048d61036b565b5b813561049e848260208601610439565b91505092915050565b5f805f606084860312156104be576104bd610330565b5b5f6104cb86828701610357565b935050602084013567ffffffffffffffff8111156104ec576104eb610334565b5b6104f88682870161047a565b925050604061050986828701610357565b9150509250925092565b5f6020828403121561052857610527610330565b5b5f61053584828501610357565b91505092915050565b61054781610338565b82525050565b5f81519050919050565b5f82825260208201905092915050565b5f5b83811015610584578082015181840152602081019050610569565b5f8484015250505050565b5f6105998261054d565b6105a38185610557565b93506105b3818560208601610567565b6105bc81610373565b840191505092915050565b5f606083015f8301516105dc5f86018261053e565b50602083015184820360208601526105f4828261058f565b9150506040830151610609604086018261053e565b508091505092915050565b5f6020820190508181035f83015261062c81846105c7565b905092915050565b61063d81610338565b82525050565b5f82825260208201905092915050565b5f61065d8261054d565b6106678185610643565b9350610677818560208601610567565b61068081610373565b840191505092915050565b5f60608201905061069e5f830186610634565b81810360208301526106b08185610653565b90506106bf6040830184610634565b949350505050565b7f4e487b71000000000000000000000000000000000000000000000000000000005f52602260045260245ffd5b5f600282049050600182168061070b57607f821691505b60208210810361071e5761071d6106c7565b5b50919050565b5f819050815f5260205f209050919050565b5f6020601f8301049050919050565b5f82821b905092915050565b5f600883026107807fffffffffffffffffffffffffffffffffffffffffffffffffffffffffffffffff82610745565b61078a8683610745565b95508019841693508086168417925050509392505050565b5f819050919050565b5f6107c56107c06107bb84610338565b6107a2565b610338565b9050919050565b5f819050919050565b6107de836107ab565b6107f26107ea826107cc565b848454610751565b825550505050565b5f90565b6108066107fa565b6108118184846107d5565b505050565b5b81811015610834576108295f826107fe565b600181019050610817565b5050565b601f8211156108795761084a81610724565b61085384610736565b81016020851015610862578190505b61087661086e85610736565b830182610816565b50505b505050565b5f82821c905092915050565b5f6108995f198460080261087e565b1980831691505092915050565b5f6108b1838361088a565b9150826002028217905092915050565b6108ca8261054d565b67ffffffffffffffff8111156108e3576108e2610383565b5b6108ed82546106f4565b6108f8828285610838565b5f60209050601f831160018114610929575f8415610917578287015190505b61092185826108a6565b865550610988565b601f19841661093786610724565b5f5b8281101561095e57848901518255600182019150602085019450602081019050610939565b8683101561097b5784890151610977601f89168261088a565b8355505b6001600288020188555050505b505050505050565b7f4e487b71000000000000000000000000000000000000000000000000000000005f52603260045260245ffdfea26469706673582212205ed8fc4288d2e52550b5c95da4d3f8d55710b26bf73eaf5d1752ec1bec5d3bb164736f6c63430008140033a264697066735822122044865d8797e2e249e72b806dd417179ccc58d234209ae6956a314c650ad57a2364736f6c63430008140033",
  "immutableReferences": {},
  "source": "// SPDX-License-Identifier: MIT\npragma solidity ^0.8.0;\nimport \"./EscrowDemo.sol\";\n\ncontract Factory {\n    event ContractCreated(address newContract, uint256 timestamp);\n\n    EscrowDemo[] public deployedContracts;\n\n    function createContract() public {\n        EscrowDemo newContract = new EscrowDemo();\n        deployedContracts.push(newContract);\n        emit ContractCreated(address(newContract), block.timestamp);\n    }\n\n    function getDeployedContracts() public view returns (EscrowDemo[] memory) {\n        return deployedContracts;\n    }\n}",
  "sourcePath": "/Users/sabya.s/Documents/escrow-final-draft/contracts/Factory.sol",
  "compiler": {
    "name": "solc",
    "version": "0.8.20+commit.a1b79de6.Emscripten.clang"
  },
  "schemaVersion": "3.4.14",
  "updatedAt": "2023-06-28T05:48:47.373Z",
  "devdoc": {
    "kind": "dev",
    "methods": {},
    "version": 1
  },
  "userdoc": {
    "kind": "user",
    "methods": {},
    "version": 1
  }
}