{
  "contractName": "Factory",
  "abi": [
    {
      "anonymous": false,
      "inputs": [
        {
          "indexed": false,
          "internalType": "address",
          "name": "newContract",
          "type": "address"
        },
        {
          "indexed": false,
          "internalType": "uint256",
          "name": "timestamp",
          "type": "uint256"
        }
      ],
      "name": "ContractCreated",
      "type": "event"
    },
    {
      "inputs": [
        {
          "internalType": "uint256",
          "name": "",
          "type": "uint256"
        }
      ],
      "name": "deployedContracts",
      "outputs": [
        {
          "internalType": "contract EscrowDemo",
          "name": "",
          "type": "address"
        }
      ],
      "stateMutability": "view",
      "type": "function"
    },
    {
      "inputs": [],
      "name": "createContract",
      "outputs": [],
      "stateMutability": "nonpayable",
      "type": "function"
    },
    {
      "inputs": [],
      "name": "getDeployedContracts",
      "outputs": [
        {
          "internalType": "contract EscrowDemo[]",
          "name": "",
          "type": "address[]"
        }
      ],
      "stateMutability": "view",
      "type": "function"
    }
  ],
  "bytecode": "0x608060405234801561000f575f80fd5b50610e0f8061001d5f395ff3fe608060405234801561000f575f80fd5b506004361061003f575f3560e01c8063412a5a6d146100435780639ad1ee101461004d578063aa9a068f1461007d575b5f80fd5b61004b61009b565b005b61006760048036038101906100629190610267565b61015f565b604051610074919061030c565b60405180910390f35b610085610199565b60405161009291906103dc565b60405180910390f35b5f6040516100a890610223565b604051809103905ff0801580156100c1573d5f803e3d5ffd5b5090505f81908060018154018082558091505060019003905f5260205f20015f9091909190916101000a81548173ffffffffffffffffffffffffffffffffffffffff021916908373ffffffffffffffffffffffffffffffffffffffff1602179055507f1dc05c1d6a563dddb6c22082af72b54ec2f0207ceb55db5d13cdabc208f303a9814260405161015492919061042b565b60405180910390a150565b5f818154811061016d575f80fd5b905f5260205f20015f915054906101000a900473ffffffffffffffffffffffffffffffffffffffff1681565b60605f80548060200260200160405190810160405280929190818152602001828054801561021957602002820191905f5260205f20905b815f9054906101000a900473ffffffffffffffffffffffffffffffffffffffff1673ffffffffffffffffffffffffffffffffffffffff16815260200190600101908083116101d0575b5050505050905090565b6109878061045383390190565b5f80fd5b5f819050919050565b61024681610234565b8114610250575f80fd5b50565b5f813590506102618161023d565b92915050565b5f6020828403121561027c5761027b610230565b5b5f61028984828501610253565b91505092915050565b5f73ffffffffffffffffffffffffffffffffffffffff82169050919050565b5f819050919050565b5f6102d46102cf6102ca84610292565b6102b1565b610292565b9050919050565b5f6102e5826102ba565b9050919050565b5f6102f6826102db565b9050919050565b610306816102ec565b82525050565b5f60208201905061031f5f8301846102fd565b92915050565b5f81519050919050565b5f82825260208201905092915050565b5f819050602082019050919050565b610357816102ec565b82525050565b5f610368838361034e565b60208301905092915050565b5f602082019050919050565b5f61038a82610325565b610394818561032f565b935061039f8361033f565b805f5b838110156103cf5781516103b6888261035d565b97506103c183610374565b9250506001810190506103a2565b5085935050505092915050565b5f6020820190508181035f8301526103f48184610380565b905092915050565b5f61040682610292565b9050919050565b610416816103fc565b82525050565b61042581610234565b82525050565b5f60408201905061043e5f83018561040d565b61044b602083018461041c565b939250505056fe608060405234801561000f575f80fd5b5061096a8061001d5f395ff3fe608060405234801561000f575f80fd5b506004361061003f575f3560e01c806336555b85146100435780639507d39a1461005f5780639e7a13ad14610090575b5f80fd5b61005d6004803603810190610058919061049a565b6100c1565b005b610079600480360381019061007491906104f4565b61015f565b6040516100879291906105a8565b60405180910390f35b6100aa60048036038101906100a591906104f4565b610266565b6040516100b89291906105a8565b60405180910390f35b5f60405180604001604052808481526020018381525090505f81908060018154018082558091505060019003905f5260205f2090600202015f909190919091505f820151815f01908161011491906107d0565b506020820151816001015550507f038689efcc6afee3cd9a9149881ac988a4baf9420f51737c9d3d832fe2d5b53983836040516101529291906105a8565b60405180910390a1505050565b60605f808054905083106101a8576040517f08c379a000000000000000000000000000000000000000000000000000000000815260040161019f906108e9565b60405180910390fd5b5f8084815481106101bc576101bb610907565b5b905f5260205f2090600202019050805f0181600101548180546101de90610603565b80601f016020809104026020016040519081016040528092919081815260200182805461020a90610603565b80156102555780601f1061022c57610100808354040283529160200191610255565b820191905f5260205f20905b81548152906001019060200180831161023857829003601f168201915b505050505091509250925050915091565b5f8181548110610274575f80fd5b905f5260205f2090600202015f91509050805f01805461029390610603565b80601f01602080910402602001604051908101604052809291908181526020018280546102bf90610603565b801561030a5780601f106102e15761010080835404028352916020019161030a565b820191905f5260205f20905b8154815290600101906020018083116102ed57829003601f168201915b5050505050908060010154905082565b5f604051905090565b5f80fd5b5f80fd5b5f80fd5b5f80fd5b5f601f19601f8301169050919050565b7f4e487b71000000000000000000000000000000000000000000000000000000005f52604160045260245ffd5b61037982610333565b810181811067ffffffffffffffff8211171561039857610397610343565b5b80604052505050565b5f6103aa61031a565b90506103b68282610370565b919050565b5f67ffffffffffffffff8211156103d5576103d4610343565b5b6103de82610333565b9050602081019050919050565b828183375f83830152505050565b5f61040b610406846103bb565b6103a1565b9050828152602081018484840111156104275761042661032f565b5b6104328482856103eb565b509392505050565b5f82601f83011261044e5761044d61032b565b5b813561045e8482602086016103f9565b91505092915050565b5f819050919050565b61047981610467565b8114610483575f80fd5b50565b5f8135905061049481610470565b92915050565b5f80604083850312156104b0576104af610323565b5b5f83013567ffffffffffffffff8111156104cd576104cc610327565b5b6104d98582860161043a565b92505060206104ea85828601610486565b9150509250929050565b5f6020828403121561050957610508610323565b5b5f61051684828501610486565b91505092915050565b5f81519050919050565b5f82825260208201905092915050565b5f5b8381101561055657808201518184015260208101905061053b565b5f8484015250505050565b5f61056b8261051f565b6105758185610529565b9350610585818560208601610539565b61058e81610333565b840191505092915050565b6105a281610467565b82525050565b5f6040820190508181035f8301526105c08185610561565b90506105cf6020830184610599565b9392505050565b7f4e487b71000000000000000000000000000000000000000000000000000000005f52602260045260245ffd5b5f600282049050600182168061061a57607f821691505b60208210810361062d5761062c6105d6565b5b50919050565b5f819050815f5260205f209050919050565b5f6020601f8301049050919050565b5f82821b905092915050565b5f6008830261068f7fffffffffffffffffffffffffffffffffffffffffffffffffffffffffffffffff82610654565b6106998683610654565b95508019841693508086168417925050509392505050565b5f819050919050565b5f6106d46106cf6106ca84610467565b6106b1565b610467565b9050919050565b5f819050919050565b6106ed836106ba565b6107016106f9826106db565b848454610660565b825550505050565b5f90565b610715610709565b6107208184846106e4565b505050565b5b81811015610743576107385f8261070d565b600181019050610726565b5050565b601f8211156107885761075981610633565b61076284610645565b81016020851015610771578190505b61078561077d85610645565b830182610725565b50505b505050565b5f82821c905092915050565b5f6107a85f198460080261078d565b1980831691505092915050565b5f6107c08383610799565b9150826002028217905092915050565b6107d98261051f565b67ffffffffffffffff8111156107f2576107f1610343565b5b6107fc8254610603565b610807828285610747565b5f60209050601f831160018114610838575f8415610826578287015190505b61083085826107b5565b865550610897565b601f19841661084686610633565b5f5b8281101561086d57848901518255600182019150602085019450602081019050610848565b8683101561088a5784890151610886601f891682610799565b8355505b6001600288020188555050505b505050505050565b7f496e646578206f7574206f662072616e676500000000000000000000000000005f82015250565b5f6108d3601283610529565b91506108de8261089f565b602082019050919050565b5f6020820190508181035f830152610900816108c7565b9050919050565b7f4e487b71000000000000000000000000000000000000000000000000000000005f52603260045260245ffdfea26469706673582212205546b92a165efd676f9aca7ae16cea6b89d93c0a922b80e31573c83eaddc6c4764736f6c63430008140033a264697066735822122097f3fb207670b97922cf4194159a46337ac66a4e3c8205ffd681fc22378caf7164736f6c63430008140033",
  "immutableReferences": {},
  "source": "// SPDX-License-Identifier: MIT\npragma solidity ^0.8.0;\nimport \"./EscrowDemo.sol\";\n\ncontract Factory {\n    event ContractCreated(address newContract, uint256 timestamp);\n\n    EscrowDemo[] public deployedContracts;\n\n    function createContract() public {\n        EscrowDemo newContract = new EscrowDemo();\n        deployedContracts.push(newContract);\n        emit ContractCreated(address(newContract), block.timestamp);\n    }\n\n    function getDeployedContracts() public view returns (EscrowDemo[] memory) {\n        return deployedContracts;\n    }\n}",
  "sourcePath": "/Users/sabya.s/Documents/escrow-final-draft/contracts/Factory.sol",
  "compiler": {
    "name": "solc",
    "version": "0.8.20+commit.a1b79de6.Emscripten.clang"
  },
  "schemaVersion": "3.4.14",
  "updatedAt": "2023-06-26T10:13:11.019Z",
  "devdoc": {
    "kind": "dev",
    "methods": {},
    "version": 1
  },
  "userdoc": {
    "kind": "user",
    "methods": {},
    "version": 1
  }
}